{
  "_format": "hh-sol-artifact-1",
  "contractName": "WavePortal",
  "sourceName": "contracts/WavePortal.sol",
  "abi": [
    {
      "inputs": [],
      "stateMutability": "nonpayable",
      "type": "constructor"
    },
    {
      "inputs": [
        {
          "internalType": "address",
          "name": "_address",
          "type": "address"
        }
      ],
      "name": "getMessageAddress",
      "outputs": [
        {
          "internalType": "string",
          "name": "",
          "type": "string"
        }
      ],
      "stateMutability": "view",
      "type": "function"
    },
    {
      "inputs": [],
      "name": "getTotalWaves",
      "outputs": [
        {
          "internalType": "uint256",
          "name": "",
          "type": "uint256"
        }
      ],
      "stateMutability": "view",
      "type": "function"
    },
    {
      "inputs": [
        {
          "internalType": "string",
          "name": "_waveMessage",
          "type": "string"
        }
      ],
      "name": "wave",
      "outputs": [],
      "stateMutability": "nonpayable",
      "type": "function"
    }
  ],
  "bytecode": "0x60806040523480156200001157600080fd5b506200004160405180606001604052806027815260200162000d85602791396200004760201b620003b81760201c565b620001db565b620000e7816040516024016200005e919062000154565b6040516020818303038152906040527f41304fac000000000000000000000000000000000000000000000000000000007bffffffffffffffffffffffffffffffffffffffffffffffffffffffff19166020820180517bffffffffffffffffffffffffffffffffffffffffffffffffffffffff8381831617835250505050620000ea60201b60201c565b50565b60008151905060006a636f6e736f6c652e6c6f679050602083016000808483855afa5050505050565b6000620001208262000178565b6200012c818562000183565b93506200013e81856020860162000194565b6200014981620001ca565b840191505092915050565b6000602082019050818103600083015262000170818462000113565b905092915050565b600081519050919050565b600082825260208201905092915050565b60005b83811015620001b457808201518184015260208101905062000197565b83811115620001c4576000848401525b50505050565b6000601f19601f8301169050919050565b610b9a80620001eb6000396000f3fe608060405234801561001057600080fd5b50600436106100415760003560e01c8063449d46c0146100465780639a2cdc0814610062578063fbf6887614610080575b600080fd5b610060600480360381019061005b919061079d565b6100b0565b005b61006a61015f565b6040516100779190610911565b60405180910390f35b61009a60048036038101906100959190610774565b6101aa565b6040516100a79190610835565b60405180910390f35b60016000808282546100c291906109a9565b925050819055506101086040518060400160405280600d81526020017f257320686173207761766564210000000000000000000000000000000000000081525033610451565b80600160003373ffffffffffffffffffffffffffffffffffffffff1673ffffffffffffffffffffffffffffffffffffffff168152602001908152602001600020908051906020019061015b929190610654565b5050565b60006101a26040518060400160405280601781526020017f5765206861766520256420746f74616c207761766573210000000000000000008152506000546104ed565b600054905090565b60606102e96040518060400160405280601681526020017f4d657373616765206f6620746865206164647265737300000000000000000000815250836040518060400160405280600481526020017f69733a2000000000000000000000000000000000000000000000000000000000815250600160008773ffffffffffffffffffffffffffffffffffffffff1673ffffffffffffffffffffffffffffffffffffffff168152602001908152602001600020805461026690610a7d565b80601f016020809104026020016040519081016040528092919081815260200182805461029290610a7d565b80156102df5780601f106102b4576101008083540402835291602001916102df565b820191906000526020600020905b8154815290600101906020018083116102c257829003601f168201915b5050505050610589565b600160008373ffffffffffffffffffffffffffffffffffffffff1673ffffffffffffffffffffffffffffffffffffffff168152602001908152602001600020805461033390610a7d565b80601f016020809104026020016040519081016040528092919081815260200182805461035f90610a7d565b80156103ac5780601f10610381576101008083540402835291602001916103ac565b820191906000526020600020905b81548152906001019060200180831161038f57829003601f168201915b50505050509050919050565b61044e816040516024016103cc9190610835565b6040516020818303038152906040527f41304fac000000000000000000000000000000000000000000000000000000007bffffffffffffffffffffffffffffffffffffffffffffffffffffffff19166020820180517bffffffffffffffffffffffffffffffffffffffffffffffffffffffff838183161783525050505061062b565b50565b6104e98282604051602401610467929190610857565b6040516020818303038152906040527f319af333000000000000000000000000000000000000000000000000000000007bffffffffffffffffffffffffffffffffffffffffffffffffffffffff19166020820180517bffffffffffffffffffffffffffffffffffffffffffffffffffffffff838183161783525050505061062b565b5050565b61058582826040516024016105039291906108e1565b6040516020818303038152906040527f9710a9d0000000000000000000000000000000000000000000000000000000007bffffffffffffffffffffffffffffffffffffffffffffffffffffffff19166020820180517bffffffffffffffffffffffffffffffffffffffffffffffffffffffff838183161783525050505061062b565b5050565b610625848484846040516024016105a39493929190610887565b6040516020818303038152906040527f245986f2000000000000000000000000000000000000000000000000000000007bffffffffffffffffffffffffffffffffffffffffffffffffffffffff19166020820180517bffffffffffffffffffffffffffffffffffffffffffffffffffffffff838183161783525050505061062b565b50505050565b60008151905060006a636f6e736f6c652e6c6f679050602083016000808483855afa5050505050565b82805461066090610a7d565b90600052602060002090601f01602090048101928261068257600085556106c9565b82601f1061069b57805160ff19168380011785556106c9565b828001600101855582156106c9579182015b828111156106c85782518255916020019190600101906106ad565b5b5090506106d691906106da565b5090565b5b808211156106f35760008160009055506001016106db565b5090565b600061070a6107058461095d565b61092c565b90508281526020810184848401111561072257600080fd5b61072d848285610a3b565b509392505050565b60008135905061074481610b4d565b92915050565b600082601f83011261075b57600080fd5b813561076b8482602086016106f7565b91505092915050565b60006020828403121561078657600080fd5b600061079484828501610735565b91505092915050565b6000602082840312156107af57600080fd5b600082013567ffffffffffffffff8111156107c957600080fd5b6107d58482850161074a565b91505092915050565b6107e7816109ff565b82525050565b60006107f88261098d565b6108028185610998565b9350610812818560208601610a4a565b61081b81610b3c565b840191505092915050565b61082f81610a31565b82525050565b6000602082019050818103600083015261084f81846107ed565b905092915050565b6000604082019050818103600083015261087181856107ed565b905061088060208301846107de565b9392505050565b600060808201905081810360008301526108a181876107ed565b90506108b060208301866107de565b81810360408301526108c281856107ed565b905081810360608301526108d681846107ed565b905095945050505050565b600060408201905081810360008301526108fb81856107ed565b905061090a6020830184610826565b9392505050565b60006020820190506109266000830184610826565b92915050565b6000604051905081810181811067ffffffffffffffff8211171561095357610952610b0d565b5b8060405250919050565b600067ffffffffffffffff82111561097857610977610b0d565b5b601f19601f8301169050602081019050919050565b600081519050919050565b600082825260208201905092915050565b60006109b482610a31565b91506109bf83610a31565b9250827fffffffffffffffffffffffffffffffffffffffffffffffffffffffffffffffff038211156109f4576109f3610aaf565b5b828201905092915050565b6000610a0a82610a11565b9050919050565b600073ffffffffffffffffffffffffffffffffffffffff82169050919050565b6000819050919050565b82818337600083830152505050565b60005b83811015610a68578082015181840152602081019050610a4d565b83811115610a77576000848401525b50505050565b60006002820490506001821680610a9557607f821691505b60208210811415610aa957610aa8610ade565b5b50919050565b7f4e487b7100000000000000000000000000000000000000000000000000000000600052601160045260246000fd5b7f4e487b7100000000000000000000000000000000000000000000000000000000600052602260045260246000fd5b7f4e487b7100000000000000000000000000000000000000000000000000000000600052604160045260246000fd5b6000601f19601f8301169050919050565b610b56816109ff565b8114610b6157600080fd5b5056fea264697066735822122063fc75ed7a7ef7903ab0d7936e8510af2663cd8790c7d46524a786e880f043a864736f6c63430008000033496e697469616c697a696e67205761766520506f7274616c20736d61727420636f6e7472616374",
  "linkReferences": {},
  "deployedLinkReferences": {}
}